S0030000FC
S10600E87EB69F3E
S113B6008E01FFCE10004F97019702BDB68D8602C2
S113B61097000EC60A18CE4E200101180926FA5AC0
S113B62026F37D000026FB0F7F0003CE1000EC10F4
S113B6309301DD03DE03CC002003DF05DC050404F5
S113B640047F000797080404DD058F93058F04DD4C
S113B650059B0897088F9305D307DD071A830064B9
S113B6602408CEB737BDFFC720201A83271023082C
S113B670CEB74CBDFFC72012BDFFC4CE0007BDB777
S113B68003BDB6AFCEB761BDFFCA7EB60ECE100005
S113B6908610A7211D23FB860297001C220439CEA5
S113B6A010001D23FB7A00002704EC10DD013B3C55
S113B6B03736CE00098630A10026198D3DA100261B
S113B6C0198D378D3509A100261B8D2EA100261B4F
S113B6D08D28201DA600BDFFB808A600BDFFB886B2
S113B6E02CBDFFB808A600BDFFB808A600BDFFB872
S113B6F008A600BDFFB83233383936088620BDFFAE
S113B700B832393C3736EC00CE2710028FCB30D715
S113B710098FCE03E8028FCB30D70A8FCE006402A4
S113B7208FCB30D70B8FCE000A02CB30D70D8FCB07
S113B73030D70C32333839467265712E2069732044
S113B74062656C6F7720313030487A0446726571D7
S113B7502E2069732061626F76652031306B487AE0
S108B7600420487A04F6
S9030000FC
