S11301000102030405060708090A0B0C0D0E0F1063
S1070110111213149D
S113B6008E01FFCEB6B3BDFFC7FE01008D0B8D4882
S113B610CEB6D6BDFFC78D013F8601B701147F01A9
S113B62015C605CE0100BDFFC4A600BDFFB2A6002D
S113B630BDFFB58620BDFFB8F60114C10527022061
S113B640097F01147C0115BDFFC4F60115C104274F
S113B650067C01140820D2398600B70114B70115FD
S113B660B70116B701188605B701178603B7011984
S113B670B60114C6053D8900C301008FB60119F651
S113B68001173D8900C30100188FA60018E60018B1
S113B690A700E7000818087C0116B60116810526E4
S113B6A0E97F01167C01187A0119B60119B1011854
S113B6B02CCA39546865206F726967696E616C20A1
S113B6C06D617472697820697320617320666F6C90
S113B6D06C6F77733A04546865206D6F64696669AA
S113B6E06564206D617472697820697320617320C8
S10CB6F0666F6C6C6F77733A0409
S9030000FC
